:020000040000FA
:1000000000020020C1000000610300003503000071
:10001000FFFFFFFFFFFFFFFFFFFFFFFFFFFFFFFFF0
:10002000FFFFFFFFFFFFFFFFFFFFFFFF6503000074
:10003000FFFFFFFFFFFFFFFF630300000101000060
:1000400003010000030100000301000003010000A0
:100050000301000003010000030100000301000090
:1000600003010000FFFFFFFF030100000301000088
:10007000030100000301000003010000FFFFFFFF78
:10008000FFFFFFFF03010000030100000301000068
:100090000301000003010000030100000301000050
:1000A0000301000003010000030100000301000040
:1000B0000301000003010000030100000301000030
:1000C0001048804710488047104800471048016991
:1000D000002910D1416900290DD1816900290AD177
:1000E000C169002907D1BFF34F8F0A490A48C86088
:1000F000BFF34F8FFEE77047FEE7FEE7FEE7FEE740
:10010000FEE7FEE7CD000000A50300001D01000092
:100110000003084000ED00E00400FA0503488546AE
:1001200000F006F800480047250600000002002005
:10013000064C0125064E05E0E36807CC2B430C3C3A
:1001400098471034B442F7D3FFF7ECFF580600008D
:1001500068060000F0B596460A461349C0004618E6
:1001600000230025FF2098402C46104216D0002086
:10017000012199408C461146C1406746394206D05C
:1001800087000F21B9400D437146B9400C43401C14
:100190000828F0D33068A843204330600833361D68
:1001A000082BDEDDF0BD000020200240F0B5084F36
:1001B0007C6AFD6A3E6B84438D439643002B02D0DC
:1001C00004430D4316437C62FD623E63F0BD0000B4
:1001D0000080084070B500210120800401230A46F8
:1001E000FFF7E4FF0124064DA4032146284600F052
:1001F00021F801222146284600F01EF870BD0000BB
:1002000000400B4070B500210120800401230A4604
:10021000FFF7CCFF0124064DE4032146284600F0F9
:1002200009F801222146284600F006F870BD0000BA
:1002300000400B4081627047002A026801D00A43E7
:1002400000E08A430260704741627047F0B50120C8
:100250000004041289B00025811001232246FFF713
:10026000A5FF0422F0210020FFF774FF0122F021F6
:100270002E48FFF7E1FF2E4E2146304600F006F9EA
:10028000684600F07DF9C7216846069501822F2156
:100290004182848304A9304600F084F968460570E1
:1002A00001240625047145808471642747812A460C
:1002B0000021304600F054F96946304600F0FEF85F
:1002C00068460470047145808471478106220121CB
:1002D000304600F045F96946304600F0EFF802215B
:1002E000684601700471458084710622304600F032
:1002F00037F96946304600F0E1F80321684601709D
:100300000471458084710622304600F029F969465F
:10031000304600F0D3F801220F21304600F0C5F836
:100320000121304600F0B7F809B0F0BD00000B40E5
:1003300000E00640FEE7000010B5012189030248F5
:10034000FFF782FF10BD000000400B4010B50121F7
:1003500089030248FFF76EFF10BD000000400B400C
:10036000FEE7FEE7FEE7000010B50D4B5A280ED061
:1003700005DC00280DD02D2810D1BE220AE08728E8
:1003800003D0B4280AD1AF2204E0B42202E0B9229B
:1003900000E0C3220221184600F0FEF810BD000064
:1003A00000E00640F0B534491020C8603349012010
:1003B00008603348016B40242143016331498A6856
:1003C000272AFCD1416A032292029143416241688B
:1003D0000122D202114341608168C908C907FBD0DC
:1003E0004168C908C900C91C4160416B4907490FF0
:1003F0000329FAD1244B1968C908C900491C19609E
:100400000025056241685E15B143416001689F1592
:100410003943016041681A151143416081688908B8
:10042000C907FBD0016BA14301630168B9430160B7
:1004300003210906816141683143416081684908AF
:10044000C907FBD01968C908C900891C1960056271
:100450004168C908C900491C4160416B4907490FFF
:100460000129FAD118681021084318601868090298
:1004700008431860F0BD0000008108400083084078
:100480000080084000A1064000020840C943C1673F
:10049000BFF34F8F70470029016902D00122114339
:1004A00001E04908490001617047002A426F01D00C
:1004B0000A4300E08A43426770470000F0B50C78B9
:1004C000A200121815461346A032903594466206D3
:1004D0004033AE46120E03249440204DE443A8421C
:1004E00002D001249440E4431C4E056D254005656F
:1004F000456D2540B0428E7902D1CF797F003E43D1
:1005000096402E434665154FB84208D1C66E4D7AC7
:1005100026400C7A6D002C4394403443C4661C681A
:10052000FF250835AC431C601C684D882C431C60BB
:100530004C8973461C608C8963461C60B84206D1A6
:100540000B79497949000B439340016D02E0036D3B
:10055000097991400B430365F0BD000000C00240E3
:1005600030B58B00046D1B184D000121A9408C4350
:100570000465186CFF21083188431043186430BDAE
:10058000002101704180017141718171C17101725D
:100590004172418181817047890008189030026062
:1005A0007047000010B502460B88803293604B887C
:1005B0005360036803242404A343036003680124F5
:1005C0002406A343036003688C6823430360044B41
:1005D000984201D10B79D3608989816710BD0000F1
:1005E00000C0024002E008C8121F08C1002AFAD168
:1005F00070477047002001E001C1121F002AFBD1A3
:1006000070470000054A064B00210020401C904224
:10061000FCD3491C9942F8D370470000B80B000086
:10062000AC0D0000FFF7D6FDFFF7ECFDFFF70EFE67
:10063000FFF78CFEFFF7E6FFFFF77EFEFFF7E2FF16
:100640000020FFF791FEFFF7DDFFB420FFF78CFEDF
:10065000FFF7D8FFECE7000068060000000000206C
:0806600000020000F405000097
:04000005000000C136
:00000001FF
