:020000040000FA
:1000000000020020C1000000C7010000C50100007F
:10001000FFFFFFFFFFFFFFFFFFFFFFFFFFFFFFFFF0
:10002000FFFFFFFFFFFFFFFFFFFFFFFFCB01000010
:10003000FFFFFFFFFFFFFFFFC901000001010000FC
:1000400003010000030100000301000003010000A0
:100050000301000003010000030100000301000090
:1000600003010000FFFFFFFF030100000301000088
:10007000030100000301000003010000FFFFFFFF78
:10008000FFFFFFFF03010000030100000301000068
:100090000301000003010000030100000301000050
:1000A0000301000003010000030100000301000040
:1000B0000301000003010000030100000301000030
:1000C0001048804710488047104800471048016991
:1000D000002910D1416900290DD1816900290AD177
:1000E000C169002907D1BFF34F8F0A490A48C86088
:1000F000BFF34F8FFEE77047FEE7FEE7FEE7FEE740
:10010000FEE7FEE7CD000000CD0100001D0100006C
:100110000003084000ED00E00400FA0503488546AE
:1001200000F006F800480047E90200000002002045
:10013000064C0125064E05E0E36807CC2B430C3C3A
:1001400098471034B442F7D3FFF7ECFF10030000D8
:1001500020030000F0B5084F7C6AFD6A3E6B8443C3
:100160008D439643002B02D004430D4316437C621B
:10017000FD623E63F0BD0000008008408162704770
:1001800070B500210120800401230A46FFF7E2FF39
:100190000124064DA40321462846FFF7EFFF012264
:1001A0002146284600F004F870BD000000400B40D6
:1001B000002A026801D00A4300E08A4302607047C7
:1001C00041627047FEE7FEE7FEE7FEE7F0B534491F
:1001D0001020C8603349012008603348016B402477
:1001E0002143016331498A68272AFCD1416A0322ED
:1001F00092029143416241680122D202114341605F
:100200008168C908C907FBD04168C908C900C91C71
:100210004160416B4907490F0329FAD1244B196802
:10022000C908C900491C19600025056241685E15AE
:10023000B143416001689F153943016041681A1557
:100240001143416081688908C907FBD0016BA14354
:1002500001630168B94301600321090681614168B6
:100260003143416081684908C907FBD01968C90852
:10027000C900891C196005624168C908C900491C88
:100280004160416B4907490F0129FAD118681021D3
:10029000084318601868090208431860F0BD0000A0
:1002A00000810840008308400080084000A106400B
:1002B0000002084002E008C8121F08C1002AFAD153
:1002C00070477047002001E001C1121F002AFBD1D6
:1002D000704700217D22D2000020401C9042FCD3B8
:1002E000491C9142F8D37047FFF74AFF0125074C9C
:1002F000AD0329462046FFF741FFFFF7EAFF2946F5
:100300002046FFF75DFFFFF7E4FFF2E700400B40F8
:10031000200300000000002000020000C4020000D2
:04000005000000C136
:00000001FF
