:020000040000FA
:1000000008020020C1000000A5040000290400002F
:10001000FFFFFFFFFFFFFFFFFFFFFFFFFFFFFFFFF0
:10002000FFFFFFFFFFFFFFFFFFFFFFFFA90400002F
:10003000FFFFFFFFFFFFFFFFA70400000D0500000B
:1000400003010000030100000301000003010000A0
:100050000301000003010000030100000301000090
:1000600003010000FFFFFFFF030100000301000088
:10007000030100000301000003010000FFFFFFFF78
:10008000FFFFFFFF03010000030100000301000068
:100090000301000003010000030100000301000050
:1000A0000301000003010000030100000301000040
:1000B0000301000003010000030100000301000030
:1000C0001048804710488047104800471048016991
:1000D000002910D1416900290DD1816900290AD177
:1000E000C169002907D1BFF34F8F0A490A48C86088
:1000F000BFF34F8FFEE77047FEE7FEE7FEE7FEE740
:10010000FEE7FEE7CD000000110500001D01000024
:100110000003084000ED00E00400FA0504488546AD
:1001200000F01EF80048004709080000C046C0461D
:100130000802002030B50B46014600202022012491
:1001400009E00D46D5409D4205D31D469540491B0B
:100150002546954040191546521E002DF1DC30BD54
:10016000064C0125064E05E0E36807CC2B430C3C0A
:1001700098471034B442F7D3FFF7D4FF4C0800007F
:100180006C080000F0B596460A461349C0004618B0
:1001900000230025FF2098402C46104216D0002056
:1001A000012199408C461146C1406746394206D02C
:1001B00087000F21B9400D437146B9400C43401CE4
:1001C0000828F0D33068A843204330600833361D38
:1001D000082BDEDDF0BD00002020024010B500211C
:1001E0000120800401230A4600F098F8054C012202
:1001F0001146204600F0E8F801221146204600F0A2
:100200000DF910BD00600B4070B500240B4DFF26AA
:10021000F53600220121284600F000F9304600F0B2
:10022000B7FA01221146284600F0F8F8304600F0EF
:10023000AFFA641CE4B20A2CEBD370BD00600B4033
:1002400070B5184D0446686B4607760F00F02EF81F
:1002500015492060330000F07FFA081405070714E1
:10026000140E1114606000E06160296A606805295D
:1002700009D3400908E00120C003F3E77D20000214
:10028000F0E70020EEE7C840A060A96A4903490FE3
:10029000072902D0C840E06070BD0321FFF74AFF84
:1002A000F9E700000080084000127A000C49086855
:1002B000C869C20F4868400AC007C00F0ED009487D
:1002C000002A0BD18869C00D0007000F00D1102053
:1002D0008969044A4902890F5043C84070470000A9
:1002E0000080084000127A001FB541090A4A8900BF
:1002F0008A1800212E2800D10221C006C00E1268E3
:10030000032383401A40C24054186846FFF798FF01
:10031000029804B0E04010BD38800840F0B5084FA6
:100320007C6AFD6A3E6B84438D439643002B02D06A
:1003300004430D4316437C62FD623E63F0BD000042
:100340000080084070B51E4D0221284600F061F87B
:100350001C4C002827D001221146204600F05EF8F0
:100360000421284600F055F800281FD0012211462C
:10037000204600F053F80821284600F04AF80028EB
:1003800017D001221146204600F048F80121490308
:10039000284600F03EF800280ED0012211462046E3
:1003A00000F03CF870BDFFF72FFFD9E7FFF72CFFF7
:1003B000E1E7FFF729FFE9E7FFF726FF70BD00003F
:1003C00000400B4000600B40002A026801D00A4345
:1003D00000E08A4302607047002A426801D00A4365
:1003E00000E08A4342607047002A08D0012A09D001
:1003F00082688A438260C2688A43C26070478268AA
:100400000A43F7E7C2680A43C26082688A4382608F
:100410007047C069084000D001207047002A01D011
:100420004162704781627047024801680029FCD030
:10043000704700000000002070B5002101208004FA
:1004400001230A46FFF76AFF084C094D00222146A6
:100450002846FFF7B9FF012221462846FFF7C4FFCF
:10046000012221462846FFF7B7FF70BD0E2000008D
:1004700000400B4070B500210120800401230A4692
:10048000FFF74CFF0324064DA40301222146284612
:10049000FFF79AFF012221462846FFF7BFFF70BDF4
:1004A00000400B4070477047704700000422044929
:1004B0000428086902D09043086170471043FBE7A5
:1004C00000E000E00749002806D00128086906D0AE
:1004D0004008400008617047002088617047012291
:1004E0001043F7E700E000E0044902220028086911
:1004F00001D0104300E090430861704700E000E045
:10050000014948617047000000E000E070470000CA
:10051000F0B534491020C8603349012008603348E1
:10052000016B40242143016331498A68272AFCD1A9
:10053000416A032292029143416241680122D20240
:10054000114341608168C908C907FBD04168C908E7
:10055000C900C91C4160416B4907490F0329FAD101
:10056000244B1968C908C900491C19600025056297
:1005700041685E15B143416001689F1539430160D0
:1005800041681A151143416081688908C907FBD089
:10059000016BA14301630168B943016003210906AE
:1005A000816141683143416081684908C907FBD0D6
:1005B0001968C908C900891C196005624168C90821
:1005C000C900491C4160416B4907490F0129FAD113
:1005D0001868102108431860186809020843186059
:1005E000F0BD000000810840008308400080084002
:1005F00000A10640000208400069084000D0012028
:100600007047000070B504460D46C8888988626846
:1006100008432989184B1A40114308436989084344
:10062000606001208007844206D11820FFF75CFE3D
:100630002968FFF77FFD60621048844206D11A20C6
:10064000FFF752FE2968FFF775FD60620C4884428F
:1006500006D11C20FFF748FE2968FFF76BFD60629A
:100660000848844206D11E20FFF73EFE2968FFF7A6
:1006700061FD606270BD0000FCE0FFFF000004400F
:100680000010004000100440002AC26801D00A4354
:1006900000E08A43C26070470160704710238B40BE
:1006A0004168002A01D0194300E099434160704736
:1006B0003EB521235B0219430123FFF72FFE0622DB
:1006C00010210020FFF75EFD062220210020FFF709
:1006D00059FDE12040020090FF20013069468880EA
:1006E0000020C88008810C4C48812046FFF78AFF13
:1006F000012211462046FFF7C7FF012200212046B4
:10070000FFF7CCFF012211462046FFF7C7FF034940
:10071000A00108603EBD00000000044000E100E0D0
:1007200070B50D460646002404E0304600F006F899
:10073000641CE4B2295D0029F7D170BD10B5054CE9
:100740002046FFF7A9FF80212046FFF755FF00282C
:10075000F9D010BD0000044030B47446641E257802
:10076000641CAB4200D21D46635D5B00E31830BCE5
:10077000184702E008C8121F08C1002AFAD17047C2
:100780007047002001E001C1121F002AFBD1704711
:1007900070B57D250446ED0002E0284600F006F81D
:1007A0002046641EA4B20028F7D170BD10B50446DF
:1007B0000420C043FFF77AFE114810490068FFF794
:1007C000B9FCFFF79DFE0020FFF78EFE0020FFF72B
:1007D00079FE0120FFF776FE00210A4A03E0136943
:1007E000D803FCD5491CA142F9D30120C043FFF72F
:1007F00069FE0020FFF766FE10BD000000127A00BF
:100800000400002000E000E0FFF734FEFFF750FF97
:10081000FFF712FEFFF7E2FC03A10B48FFF780FF92
:10082000FFF790FDFCE700002D2D2D2D2D2D4854B8
:100830003332206669726520544553542D2D2D2D79
:100840002D2D2D0D0A000000000004406C08000052
:10085000000000200800000072070000740800007B
:1008600008000020000200008207000000000000D5
:04087000006CDC023A
:04000005000000C136
:00000001FF
