:020000040000FA
:1000000008020020C10000002703000025030000B3
:10001000FFFFFFFFFFFFFFFFFFFFFFFFFFFFFFFFF0
:10002000FFFFFFFFFFFFFFFFFFFFFFFF2B030000AE
:10003000FFFFFFFFFFFFFFFF29030000010100009A
:1000400003010000030100000301000003010000A0
:100050000301000003010000030100000301000090
:1000600003010000FFFFFFFF030100000301000088
:10007000030100000301000003010000FFFFFFFF78
:10008000FFFFFFFF03010000030100000301000068
:100090000301000003010000030100000301000050
:1000A000150400000301000003010000030100002B
:1000B0000301000003010000030100000301000030
:1000C0001048804710488047104800471048016991
:1000D000002910D1416900290DD1816900290AD177
:1000E000C169002907D1BFF34F8F0A490A48C86088
:1000F000BFF34F8FFEE77047FEE7FEE7FEE7FEE740
:10010000FEE7FEE7CD0000002D0300001D0100000A
:100110000003084000ED00E00400FA0503488546AE
:1001200000F01CF8004800475907000008020020B2
:1001300030B50B46014600202022012409E00D467F
:10014000D5409D4205D31D469540491B2546954007
:1001500040191546521E002DF1DC30BD064C01251C
:10016000064E05E0E36807CC2B430C3C984710345F
:10017000B442F7D3FFF7D6FF90070000B0070000A6
:10018000F0B596460A461349C000461800230025DC
:10019000FF2098402C46104216D0002001219940A3
:1001A0008C461146C1406746394206D087000F2170
:1001B000B9400D437146B9400C43401C0828F0D3A8
:1001C0003068A843204330600833361D082BDEDD3D
:1001D000F0BD00002020024070B5184D0446686B49
:1001E0004607760F00F02EF815492060330000F026
:1001F0001BFA081405070714140E1114606000E0C0
:100200006160296A6068052909D3400908E0012076
:10021000C003F3E77D200002F0E70020EEE7C840CE
:10022000A060A96A4903490F072902D0C840E060CD
:1002300070BD0321FFF77CFFF9E700000080084054
:1002400000127A000C490868C869C20F4868400A61
:10025000C007C00F0ED00948002A0BD18869C00D15
:100260000007000F00D110208969044A4902890F54
:100270005043C840704700000080084000127A00D8
:100280001FB541090A4A89008A1800212E2800D189
:100290000221C006C00E1268032383401A40C240E8
:1002A00054186846FFF798FF029804B0E04010BD6C
:1002B00038800840F0B5084F7C6AFD6A3E6B844385
:1002C0008D439643002B02D004430D4316437C62BA
:1002D000FD623E63F0BD000000800840816270470F
:1002E00070B500210120800401230A46FFF7E2FFD8
:1002F0000124064DA40321462846FFF7EFFF012203
:100300002146284600F004F870BD000000400B4074
:10031000002A026801D00A4300E08A430260704765
:1003200041627047FEE7FEE7FEE7FEE7F0B53449BD
:100330001020C8603349012008603348016B402415
:100340002143016331498A68272AFCD1416A03228B
:1003500092029143416241680122D20211434160FD
:100360008168C908C907FBD04168C908C900C91C10
:100370004160416B4907490F0329FAD1244B1968A1
:10038000C908C900491C19600025056241685E154D
:10039000B143416001689F153943016041681A15F6
:1003A0001143416081688908C907FBD0016BA143F3
:1003B00001630168B9430160032109068161416855
:1003C0003143416081684908C907FBD01968C908F1
:1003D000C900891C196005624168C908C900491C27
:1003E0004160416B4907490F0129FAD11868102172
:1003F000084318601868090208431860F0BD00003F
:1004000000810840008308400080084000A10640A9
:100410000002084010B5124C2021204600F038F8A8
:10042000002813D0204600F083F8C4B201218903CC
:100430000C48302C0BD0312C08D1FFF771FF21462E
:1004400009A000F0E1F80CA000F0DEF810BDFFF705
:1004500045FF214604A000F0D7F80AA0F4E7000009
:100460000000044000400B4064617461203D202581
:1004700063200D0A000000004C454431204F4646E1
:100480000D0A00004C454431204F4E0D0A0000007B
:100490000069084000D001207047000070B5044694
:1004A0000D46C8888988626808432989184B1A4014
:1004B0001143084369890843606001208007844232
:1004C00006D11820FFF7DCFE2968FFF731FE6062D5
:1004D0001048844206D11A20FFF7D2FE2968FFF7A0
:1004E00027FE60620C48844206D11C20FFF7C8FE3C
:1004F0002968FFF71DFE60620848844206D11E206D
:10050000FFF7BEFE2968FFF713FE606270BD0000B2
:10051000FCE0FFFF00000440001000400010044019
:10052000002AC26801D00A4300E08A43C2607047D3
:10053000006880B270470160704710238B404168AB
:10054000002A01D0194300E0994341607047000040
:10055000FEB50124A4032143A511A600294330437D
:100560000123FFF7A7FE2143631119433043012301
:10057000FFF7A0FE062210210020FFF701FE062251
:1005800020210020FFF7FCFDE12040020090694699
:100590008D800020C88008810B4C48812046FFF7E1
:1005A0007DFF012211462046FFF7BAFF01220021FC
:1005B0002046FFF7C2FF012211462046FFF7BDFF8C
:1005C0000249A0010860FEBD0000044000E100E017
:1005D00070B50D460646002404E0304600F006F8EB
:1005E000641CE4B2295D0029F7D170BD10B5054C3B
:1005F0002046FFF7A0FF80212046FFF749FF002893
:10060000F9D010BD000004400FB410B503A9044B8D
:10061000044A029800F024F810BC08BC04B0184743
:10062000350700000000002030B47446641E2578B1
:10063000641CAB4200D21D46635D5B00E31830BC16
:10064000184702E008C8121F08C1002AFAD17047F3
:100650007047002001E001C1121F002AFBD1704742
:10066000FFB581B00546002706E025280AD0049A88
:10067000039990476D1C7F1C28780028F5D13846D7
:1006800005B0F0BD002269786D1C10462E2913D1EB
:10069000697804226D1C2A2909D102996D1C01C9AF
:1006A000029109E00A235843303808186D1C297854
:1006B0000B46303B092BF5D92B78002BDFD0632B71
:1006C00007D0732B10D0049A1846039990477F1CCB
:1006D0002DE002996C460B782370091D02910021D0
:1006E00061706E46012104E0029940C90291002127
:1006F000C94352070AD5002400E0641C84420DDA85
:100700008C42FADB325D002AF7D107E0002400E0DA
:10071000641C8C42FCDB305D0028F9D13F1904E0F9
:100720003078049A761C03999047641EF8D26D1CA9
:10073000A2E7000070B5074D0446C1B22846FFF796
:10074000FAFE80212846FFF7A3FE0028F9D02046B4
:1007500070BD000000000440FFF7C2FDFFF7F8FE87
:1007600002A10A48FFF734FFFEE700002D2D2D2DD2
:100770002D2D485433322055415254205445535462
:100780002D2D2D2D2D2D2D0D0A00000000000440D3
:10079000B007000000000020040000004206000036
:1007A000B40700000400002004020000520600000C
:0407B0000000000045
:04000005000000C136
:00000001FF
