:020000040000FA
:1000000008020020C10000008F0400008D040000E1
:10001000FFFFFFFFFFFFFFFFFFFFFFFFFFFFFFFFF0
:10002000FFFFFFFFFFFFFFFFFFFFFFFF9304000045
:10003000FFFFFFFFFFFFFFFF910400000101000031
:1000400003010000030100000301000003010000A0
:100050000301000003010000030100000301000090
:1000600003010000FFFFFFFF030100000301000088
:10007000030100000301000003010000FFFFFFFF78
:10008000FFFFFFFF03010000030100000301000068
:100090000301000003010000030100000301000050
:1000A0000301000003010000030100000301000040
:1000B0000301000003010000030100000301000030
:1000C0001048804710488047104800471048016991
:1000D000002910D1416900290DD1816900290AD177
:1000E000C169002907D1BFF34F8F0A490A48C86088
:1000F000BFF34F8FFEE77047FEE7FEE7FEE7FEE740
:10010000FEE7FEE7CD000000950400001D010000A1
:100110000003084000ED00E00400FA0503488546AE
:1001200000F072F800480047B50600000802002001
:1001300030B50B46014600202022012409E00D467F
:10014000D5409D4205D31D469540491B2546954007
:1001500040191546521E002DF1DC30BDF8B50024C3
:100160002546002904DA0E46012400214042B1410F
:10017000002B04DA1E46002352420125B34100F051
:1001800013F88C4617461E46AC4203D00025404269
:100190008D41AC46002C02D0002657429E4161465C
:1001A0003A46334601B0F0BDF0B51FB40646002014
:1001B00082B005464024019100901BE0019922463F
:1001C0000F46304600F042F8049A059B801A994188
:1001D00010D310461946224600F028F8361A8F41EF
:1001E0000197224601200021009F00F01FF83818D7
:1001F0004D4100902046641E0028DFDC019B0098E2
:100200002946324607B0F0BD064C0125064E05E0F2
:10021000E36807CC2B430C3C98471034B442F7D327
:10022000FFF780FFF00600001007000010B5202A3D
:1002300004DB0146203A9140002010BD914020236C
:100240009C1A0346E3401943904010BD10B5202A84
:1002500004DB0846203AD040002110BD0B46D340B5
:10026000D0402024A21A91400843194610BD000036
:10027000F0B596460A461349C000461800230025EB
:10028000FF2098402C46104216D0002001219940B2
:100290008C461146C1406746394206D087000F217F
:1002A000B9400D437146B9400C43401C0828F0D3B7
:1002B0003068A843204330600833361D082BDEDD4C
:1002C000F0BD000020200240F0B5084F7C6AFD6AB6
:1002D0003E6B84438D439643002B02D004430D4371
:1002E00016437C62FD623E63F0BD00000080084062
:1002F0008162704770B501240520A4030022000428
:1003000001232146FFF7E0FF174D10212846FFF794
:10031000EFFF01221021284600F02AF8202128466C
:10032000FFF7E6FF01222021284600F021F84021B6
:100330002846FFF7DDFF01224021284600F018F88B
:100340008021284600F01CF801228021284600F078
:100350000FF8064D21462846FFF7CAFF0122214625
:10036000284600F005F870BD00000B4000400B402F
:10037000002A026801D00A4300E08A430260704705
:100380004162704710B5042210210020FFF770FF72
:1003900010BD000010B5642800D9642006498A68A1
:1003A0006421081A5043FFF7C3FE82B202480021BD
:1003B000803800F03FF910BD80E00640F0B5FF271F
:1003C00000240137254689B03A46B9010123284661
:1003D000FFF77AFF042210210020FFF749FF0422D3
:1003E00020210020FFF744FF25487D22D20000682D
:1003F00000232946FFF7B2FE401E224E089000E07F
:10040000641C611C0898FFF793FEB042F8D8611C89
:100410000898FFF78DFE694608824C820D75069597
:1004200006468F8304A9184800F00AF969460D7042
:1004300007274F8001240C714D718D71CD710D72A4
:100440004C72701C322148436421FFF771FE6946EB
:10045000064648810C4800F09BF869460C704F80B6
:100460000C714D718D71CD710D724C724E810648BB
:1004700000F08EF80121044800F080F809B0F0BDCA
:1004800000000020FFFF000000E00640FEE7FEE75E
:10049000FEE7FEE7F0B534491020C860334901207B
:1004A00008603348016B40242143016331498A6865
:1004B000272AFCD1416A032292029143416241689A
:1004C0000122D202114341608168C908C907FBD0EB
:1004D0004168C908C900C91C4160416B4907490FFF
:1004E0000329FAD1244B1968C908C900491C1960AD
:1004F0000025056241685E15B143416001689F15A2
:100500003943016041681A151143416081688908C7
:10051000C907FBD0016BA14301630168B9430160C6
:1005200003210906816141683143416081684908BE
:10053000C907FBD01968C908C900891C1960056280
:100540004168C908C900491C4160416B4907490F0E
:100550000129FAD1186810210843186018680902A7
:1005600008431860F0BD0000008108400083084087
:100570000080084000A106400002084000290169EF
:1005800002D00122114301E049084900016170478E
:10059000F0B50C78A200121815461346A03290351B
:1005A000944662064033AE46120E03249440204D1A
:1005B000E443A84202D001249440E4431C4E056D5C
:1005C00025400565456D2540B0428E7902D1CF7931
:1005D0007F003E4396402E434665154FB84208D1F2
:1005E000C66E4D7A26400C7A6D002C4394403443FD
:1005F000C4661C68FF250835AC431C601C684D8828
:100600002C431C604C8973461C608C8963461C60BB
:10061000B84206D10B79497949000B439340016DEB
:1006200002E0036D097991400B430365F0BD0000C2
:1006300000C0024089000818903002607047000036
:1006400010B502460B88803293604B885360036874
:1006500003242404A3430360036801242406A34362
:10066000036003688C6823430360044B984201D104
:100670000B79D3608989816710BD000000C00240FA
:1006800002E008C8121F08C1002AFAD1704770475B
:10069000002001E001C1121F002AFBD17047002198
:1006A0007D22D2000020401C9042FCD3491C914284
:1006B000F8D37047FFF71EFEFFF780FE3220FFF7EA
:1006C00069FEFFF75FFE0125AD03084CFFF75AFEF8
:1006D00029462046FFF70CFEFFF7E1FF294620469A
:1006E000FFF74EFEFFF7DBFFF0E7000000400B4096
:1006F0001007000000000020040000008006000039
:10070000140700000400002004020000900600000E
:04071000006CDC029B
:04000005000000C136
:00000001FF
