:020000040000FA
:1000000010020020C10000000906000043050000A6
:10001000FFFFFFFFFFFFFFFFFFFFFFFFFFFFFFFFF0
:10002000FFFFFFFFFFFFFFFFFFFFFFFF0D060000C9
:10003000FFFFFFFFFFFFFFFF0B06000001010000B5
:1000400003010000030100000301000003010000A0
:1000500003010000D50300000D04000003010000AF
:1000600003010000FFFFFFFF030100000301000088
:10007000030100000301000003010000FFFFFFFF78
:10008000FFFFFFFF03010000050200000301000065
:100090000301000003010000030100000301000050
:1000A0000301000003010000030100000301000040
:1000B0000301000003010000030100000301000030
:1000C0001048804710488047104800471048016991
:1000D000002910D1416900290DD1816900290AD177
:1000E000C169002907D1BFF34F8F0A490A48C86088
:1000F000BFF34F8FFEE77047FEE7FEE7FEE7FEE740
:10010000FEE7FEE7CD000000110600001D01000023
:100110000003084000ED00E00400FA0503488546AE
:1001200000F01CF8004800474D09000010020020B4
:1001300030B50B46014600202022012409E00D467F
:10014000D5409D4205D31D469540491B2546954007
:1001500040191546521E002DF1DC30BD064C01251C
:10016000064E05E0E36807CC2B430C3C984710345F
:10017000B442F7D3FFF7D6FF90090000B0090000A2
:1001800010B50022072802D901220838C0B2930016
:10019000054A9A18136880000F248440A3438140C5
:1001A0001943116010BD000000200240F0B59646D2
:1001B0000A461349C000461800230025FF20984036
:1001C0002C46104216D00020012199408C46114641
:1001D000C1406746394206D087000F21B9400D4320
:1001E0007146B9400C43401C0828F0D33068A8433E
:1001F000204330600833361D082BDEDDF0BD0000E3
:100200002020024070B5134D284600F04DF800281C
:100210001ED0114C6088401C81B27D20C0006180DE
:10022000814212D10DA000F049FB0020608061786E
:10023000002902D0012905D007E000F0DBF90120F8
:10024000607002E0607000F0CBF9284600F01CF806
:1002500070BD000000700740000000202D2D2D2DE6
:100260002D2D2D2D2D2D2D2D2D4C45442031532060
:10027000464C41534820544553542D2D2D2D2D2DA2
:100280002D2D2D2D2D2D0A00416849084900416072
:10029000BFF34F8F704704220029016801D011433A
:1002A00000E09143016070474068C00700D0012022
:1002B00070470029016802D00122114301E049087A
:1002C000490001607047C16070478160704700005D
:1002D00070B5184D0446686B4607760F00F02EF88F
:1002E00015492060330000F0F3FA081405070714DD
:1002F000140E1114606000E06160296A60680529CD
:1003000009D3400908E00120C003F3E77D20000283
:10031000F0E70020EEE7C840A060A96A4903490F52
:10032000072902D0C840E06070BD0321FFF700FF3D
:10033000F9E700000080084000127A000C490868C4
:10034000C869C20F4868400AC007C00F0ED00948EC
:10035000002A0BD18869C00D0007000F00D11020C2
:100360008969044A4902890F5043C8407047000018
:100370000080084000127A001FB541090A4A89002E
:100380008A1800212E2800D10221C006C00E126852
:10039000032383401A40C24054186846FFF798FF71
:1003A000029804B0E04010BD38800840F0B5084F16
:1003B0007C6AFD6A3E6B84438D439643002B02D0DA
:1003C00004430D4316437C62FD623E63F0BD0000B2
:1003D0000080084010B50B4B01211A78C9030A4868
:1003E000002A02D0012A05D008E001221A7000F08C
:1003F0007FF803E000221A7000F0A1F8022000F05C
:1004000021F810BD0000002000400B4010B50B4B40
:1004100001211A7889030A48002A02D0012A05D04E
:1004200008E001221A7000F063F803E000221A705D
:1004300000F085F8042000F005F810BD0000002051
:1004400000400B40012181400148416081607047BC
:10045000404002400179027AC90712071143C2885D
:1004600000681143024A8000801801607047000054
:10047000004002400122054B82401868012902D049
:100480009043186070471043FBE700004040024073
:1004900070B500210120800401230A46FFF786FF82
:1004A0000124064DA4032146284600F021F801222C
:1004B0002146284600F01EF870BD000000400B40A9
:1004C00070B500210120800401230A46FFF76EFF6A
:1004D0000124064DE4032146284600F009F80122D4
:1004E0002146284600F006F870BD000000400B4091
:1004F00081627047002A026801D00A4300E08A4303
:1005000002607047002A426801D00A4300E08A4333
:1005100042607047002A08D0012A09D082688A43C5
:100520008260C2688A43C260704782680A43F7E704
:10053000C2680A43C26082688A438260704741622F
:100540007047FEE7FEB50120032100224004890325
:100550000123FFF72BFF1F4C01223C212046FFF710
:10056000D1FF01223C212046FFF7D4FF01221021B8
:100570001046FFF71BFE01210420FFF701FE0420B7
:100580000090012568460571134EC6800327077247
:10059000FFF760FF114C4020206001210420FFF78D
:1005A00069FF012204211046FFF700FE012102200D
:1005B000FFF7E6FD0220009068460571C6800772CD
:1005C000FFF748FF2020206001210220FFF752FFA3
:1005D000FEBD000000200B40FFFF000000E100E036
:1005E00010B5012189030248FFF7A9FF10BD0000E3
:1005F00000400B4010B5012189030248FFF778FF46
:1006000010BD000000400B40FEE7FEE7FEE70000E3
:10061000F0B534491020C8603349012008603348E0
:10062000016B40242143016331498A68272AFCD1A8
:10063000416A032292029143416241680122D2023F
:10064000114341608168C908C907FBD04168C908E6
:10065000C900C91C4160416B4907490F0329FAD100
:10066000244B1968C908C900491C19600025056296
:1006700041685E15B143416001689F1539430160CF
:1006800041681A151143416081688908C907FBD088
:10069000016BA14301630168B943016003210906AD
:1006A000816141683143416081684908C907FBD0D5
:1006B0001968C908C900891C196005624168C90820
:1006C000C900491C4160416B4907490F0129FAD112
:1006D0001868102108431860186809020843186058
:1006E000F0BD000000810840008308400080084001
:1006F00000A106400002084010B50020012252046B
:1007000001230146FFF752FE01200D4980040860D5
:100710000C4C00212046FFF7D8FD0B487D21C90075
:100720000068FFF705FD01462046FFF7CCFD0121DB
:100730002046FFF7BEFD01212046FFF7ACFD10BDAE
:1007400000E100E00070074004000020006908405C
:1007500000D001207047000070B504460D46C888DF
:100760008988626808432989184B1A401143084355
:1007700069890843606001208007844206D11820FF
:10078000FFF7FAFD2968FFF7D3FC60621048844246
:1007900006D11A20FFF7F0FD2968FFF7C9FC606257
:1007A0000C48844206D11C20FFF7E6FD2968FFF7BC
:1007B000BFFC60620848844206D11E20FFF7DCFDC2
:1007C0002968FFF7B5FC606270BD0000FCE0FFFF28
:1007D000000004400010004000100440002AC268DD
:1007E00001D00A4300E08A43C2607047016070474D
:1007F00010238B404168002A01D0194300E099433F
:1008000041607047FEB50124A4032143A511A60051
:10081000294330430123FFF7C9FD214363111943E5
:1008200030430123FFF7C2FD062210210020FFF70D
:10083000BDFC062220210020FFF7B8FCE120400289
:10084000009069468D800020C88008810B4C48814B
:100850002046FFF781FF012211462046FFF7BEFF29
:10086000012200212046FFF7C3FF01221146204646
:10087000FFF7BEFF0249A0010860FEBD0000044072
:1008800000E100E070B50D460646002404E0304665
:1008900000F006F8641CE4B2295D0029F7D170BDB0
:1008A00010B5054C2046FFF7A1FF80212046FFF739
:1008B0004DFF0028F9D010BD0000044010B5024AD9
:1008C000024900F021F810BD2909000008000020AD
:1008D00030B47446641E2578641CAB4200D21D46B9
:1008E000635D5B00E31830BC184702E008C8121FC4
:1008F00008C1002AFAD170477047002001E001C109
:10090000121F002AFBD17047F8B516460F46044661
:10091000002503E03946B047641C6D1C2078002890
:10092000F8D12846F8BD000070B5074D0446C1B2A5
:100930002846FFF75BFF80212846FFF707FF0028C6
:10094000F9D0204670BD000000000440FFF7A0FD74
:10095000FFF7B6FDFFF756FFFFF7F4FDFFF7CCFEFC
:1009600002A10A48FFF78EFFFEE700002D2D2D2D76
:100970002D2D485433322055415254205445535460
:100980002D2D2D2D2D2D2D0D0A00000000000440D1
:10099000B0090000000000200C000000EA08000080
:1009A000BC0900000C00002004020000FA0800004E
:0C09B00000000000006CDC0200000000F1
:04000005000000C136
:00000001FF
